{
  "contractName": "EcoToken1",
  "abi": [
    {
      "inputs": [],
      "stateMutability": "nonpayable",
      "type": "constructor"
    },
    {
      "inputs": [
        {
          "internalType": "address",
          "name": "spender",
          "type": "address"
        },
        {
          "internalType": "uint256",
          "name": "allowance",
          "type": "uint256"
        },
        {
          "internalType": "uint256",
          "name": "needed",
          "type": "uint256"
        }
      ],
      "name": "ERC20InsufficientAllowance",
      "type": "error"
    },
    {
      "inputs": [
        {
          "internalType": "address",
          "name": "sender",
          "type": "address"
        },
        {
          "internalType": "uint256",
          "name": "balance",
          "type": "uint256"
        },
        {
          "internalType": "uint256",
          "name": "needed",
          "type": "uint256"
        }
      ],
      "name": "ERC20InsufficientBalance",
      "type": "error"
    },
    {
      "inputs": [
        {
          "internalType": "address",
          "name": "approver",
          "type": "address"
        }
      ],
      "name": "ERC20InvalidApprover",
      "type": "error"
    },
    {
      "inputs": [
        {
          "internalType": "address",
          "name": "receiver",
          "type": "address"
        }
      ],
      "name": "ERC20InvalidReceiver",
      "type": "error"
    },
    {
      "inputs": [
        {
          "internalType": "address",
          "name": "sender",
          "type": "address"
        }
      ],
      "name": "ERC20InvalidSender",
      "type": "error"
    },
    {
      "inputs": [
        {
          "internalType": "address",
          "name": "spender",
          "type": "address"
        }
      ],
      "name": "ERC20InvalidSpender",
      "type": "error"
    },
    {
      "inputs": [
        {
          "internalType": "address",
          "name": "owner",
          "type": "address"
        }
      ],
      "name": "OwnableInvalidOwner",
      "type": "error"
    },
    {
      "inputs": [
        {
          "internalType": "address",
          "name": "account",
          "type": "address"
        }
      ],
      "name": "OwnableUnauthorizedAccount",
      "type": "error"
    },
    {
      "anonymous": false,
      "inputs": [
        {
          "indexed": true,
          "internalType": "address",
          "name": "owner",
          "type": "address"
        },
        {
          "indexed": true,
          "internalType": "address",
          "name": "spender",
          "type": "address"
        },
        {
          "indexed": false,
          "internalType": "uint256",
          "name": "value",
          "type": "uint256"
        }
      ],
      "name": "Approval",
      "type": "event"
    },
    {
      "anonymous": false,
      "inputs": [
        {
          "indexed": true,
          "internalType": "address",
          "name": "previousOwner",
          "type": "address"
        },
        {
          "indexed": true,
          "internalType": "address",
          "name": "newOwner",
          "type": "address"
        }
      ],
      "name": "OwnershipTransferred",
      "type": "event"
    },
    {
      "anonymous": false,
      "inputs": [
        {
          "indexed": true,
          "internalType": "address",
          "name": "from",
          "type": "address"
        },
        {
          "indexed": true,
          "internalType": "address",
          "name": "to",
          "type": "address"
        },
        {
          "indexed": false,
          "internalType": "uint256",
          "name": "value",
          "type": "uint256"
        }
      ],
      "name": "Transfer",
      "type": "event"
    },
    {
      "inputs": [
        {
          "internalType": "address",
          "name": "owner",
          "type": "address"
        },
        {
          "internalType": "address",
          "name": "spender",
          "type": "address"
        }
      ],
      "name": "allowance",
      "outputs": [
        {
          "internalType": "uint256",
          "name": "",
          "type": "uint256"
        }
      ],
      "stateMutability": "view",
      "type": "function"
    },
    {
      "inputs": [
        {
          "internalType": "address",
          "name": "spender",
          "type": "address"
        },
        {
          "internalType": "uint256",
          "name": "value",
          "type": "uint256"
        }
      ],
      "name": "approve",
      "outputs": [
        {
          "internalType": "bool",
          "name": "",
          "type": "bool"
        }
      ],
      "stateMutability": "nonpayable",
      "type": "function"
    },
    {
      "inputs": [
        {
          "internalType": "address",
          "name": "account",
          "type": "address"
        }
      ],
      "name": "balanceOf",
      "outputs": [
        {
          "internalType": "uint256",
          "name": "",
          "type": "uint256"
        }
      ],
      "stateMutability": "view",
      "type": "function"
    },
    {
      "inputs": [],
      "name": "decimals",
      "outputs": [
        {
          "internalType": "uint8",
          "name": "",
          "type": "uint8"
        }
      ],
      "stateMutability": "view",
      "type": "function"
    },
    {
      "inputs": [],
      "name": "name",
      "outputs": [
        {
          "internalType": "string",
          "name": "",
          "type": "string"
        }
      ],
      "stateMutability": "view",
      "type": "function"
    },
    {
      "inputs": [],
      "name": "owner",
      "outputs": [
        {
          "internalType": "address",
          "name": "",
          "type": "address"
        }
      ],
      "stateMutability": "view",
      "type": "function"
    },
    {
      "inputs": [],
      "name": "renounceOwnership",
      "outputs": [],
      "stateMutability": "nonpayable",
      "type": "function"
    },
    {
      "inputs": [],
      "name": "symbol",
      "outputs": [
        {
          "internalType": "string",
          "name": "",
          "type": "string"
        }
      ],
      "stateMutability": "view",
      "type": "function"
    },
    {
      "inputs": [],
      "name": "totalSupply",
      "outputs": [
        {
          "internalType": "uint256",
          "name": "",
          "type": "uint256"
        }
      ],
      "stateMutability": "view",
      "type": "function"
    },
    {
      "inputs": [
        {
          "internalType": "address",
          "name": "to",
          "type": "address"
        },
        {
          "internalType": "uint256",
          "name": "value",
          "type": "uint256"
        }
      ],
      "name": "transfer",
      "outputs": [
        {
          "internalType": "bool",
          "name": "",
          "type": "bool"
        }
      ],
      "stateMutability": "nonpayable",
      "type": "function"
    },
    {
      "inputs": [
        {
          "internalType": "address",
          "name": "from",
          "type": "address"
        },
        {
          "internalType": "address",
          "name": "to",
          "type": "address"
        },
        {
          "internalType": "uint256",
          "name": "value",
          "type": "uint256"
        }
      ],
      "name": "transferFrom",
      "outputs": [
        {
          "internalType": "bool",
          "name": "",
          "type": "bool"
        }
      ],
      "stateMutability": "nonpayable",
      "type": "function"
    },
    {
      "inputs": [
        {
          "internalType": "address",
          "name": "newOwner",
          "type": "address"
        }
      ],
      "name": "transferOwnership",
      "outputs": [],
      "stateMutability": "nonpayable",
      "type": "function"
    },
    {
      "inputs": [
        {
          "internalType": "address",
          "name": "to",
          "type": "address"
        },
        {
          "internalType": "uint256",
          "name": "amount",
          "type": "uint256"
        }
      ],
      "name": "mint",
      "outputs": [],
      "stateMutability": "nonpayable",
      "type": "function"
    },
    {
      "inputs": [
        {
          "internalType": "uint256",
          "name": "amount",
          "type": "uint256"
        }
      ],
      "name": "burn",
      "outputs": [],
      "stateMutability": "nonpayable",
      "type": "function"
    }
  ],
  "bytecode": "0x608060405234801562000010575f80fd5b50336040518060400160405280600881526020017f45636f546f6b656e0000000000000000000000000000000000000000000000008152506040518060400160405280600381526020017f45434f000000000000000000000000000000000000000000000000000000000081525081600390816200008f91906200074b565b508060049081620000a191906200074b565b5050505f73ffffffffffffffffffffffffffffffffffffffff168173ffffffffffffffffffffffffffffffffffffffff160362000117575f6040517f1e4fbdf70000000000000000000000000000000000000000000000000000000081526004016200010e919062000872565b60405180910390fd5b62000128816200016e60201b60201c565b5062000168336200013e6200023160201b60201c565b600a6200014c919062000a16565b620f42406200015c919062000a66565b6200023960201b60201c565b62000b51565b5f60055f9054906101000a900473ffffffffffffffffffffffffffffffffffffffff1690508160055f6101000a81548173ffffffffffffffffffffffffffffffffffffffff021916908373ffffffffffffffffffffffffffffffffffffffff1602179055508173ffffffffffffffffffffffffffffffffffffffff168173ffffffffffffffffffffffffffffffffffffffff167f8be0079c531659141344cd1fd0a4f28419497f9722a3daafe3b4186f6b6457e060405160405180910390a35050565b5f6012905090565b5f73ffffffffffffffffffffffffffffffffffffffff168273ffffffffffffffffffffffffffffffffffffffff1603620002ac575f6040517fec442f05000000000000000000000000000000000000000000000000000000008152600401620002a3919062000872565b60405180910390fd5b620002bf5f8383620002c360201b60201c565b5050565b5f73ffffffffffffffffffffffffffffffffffffffff168373ffffffffffffffffffffffffffffffffffffffff160362000317578060025f8282546200030a919062000ab0565b92505081905550620003e8565b5f805f8573ffffffffffffffffffffffffffffffffffffffff1673ffffffffffffffffffffffffffffffffffffffff1681526020019081526020015f2054905081811015620003a3578381836040517fe450d38c0000000000000000000000000000000000000000000000000000000081526004016200039a9392919062000afb565b60405180910390fd5b8181035f808673ffffffffffffffffffffffffffffffffffffffff1673ffffffffffffffffffffffffffffffffffffffff1681526020019081526020015f2081905550505b5f73ffffffffffffffffffffffffffffffffffffffff168273ffffffffffffffffffffffffffffffffffffffff160362000431578060025f82825403925050819055506200047b565b805f808473ffffffffffffffffffffffffffffffffffffffff1673ffffffffffffffffffffffffffffffffffffffff1681526020019081526020015f205f82825401925050819055505b8173ffffffffffffffffffffffffffffffffffffffff168373ffffffffffffffffffffffffffffffffffffffff167fddf252ad1be2c89b69c2b068fc378daa952ba7f163c4a11628f55a4df523b3ef83604051620004da919062000b36565b60405180910390a3505050565b5f81519050919050565b7f4e487b71000000000000000000000000000000000000000000000000000000005f52604160045260245ffd5b7f4e487b71000000000000000000000000000000000000000000000000000000005f52602260045260245ffd5b5f60028204905060018216806200056357607f821691505b6020821081036200057957620005786200051e565b5b50919050565b5f819050815f5260205f209050919050565b5f6020601f8301049050919050565b5f82821b905092915050565b5f60088302620005dd7fffffffffffffffffffffffffffffffffffffffffffffffffffffffffffffffff82620005a0565b620005e98683620005a0565b95508019841693508086168417925050509392505050565b5f819050919050565b5f819050919050565b5f620006336200062d620006278462000601565b6200060a565b62000601565b9050919050565b5f819050919050565b6200064e8362000613565b620006666200065d826200063a565b848454620005ac565b825550505050565b5f90565b6200067c6200066e565b6200068981848462000643565b505050565b5b81811015620006b057620006a45f8262000672565b6001810190506200068f565b5050565b601f821115620006ff57620006c9816200057f565b620006d48462000591565b81016020851015620006e4578190505b620006fc620006f38562000591565b8301826200068e565b50505b505050565b5f82821c905092915050565b5f620007215f198460080262000704565b1980831691505092915050565b5f6200073b838362000710565b9150826002028217905092915050565b6200075682620004e7565b67ffffffffffffffff811115620007725762000771620004f1565b5b6200077e82546200054b565b6200078b828285620006b4565b5f60209050601f831160018114620007c1575f8415620007ac578287015190505b620007b885826200072e565b86555062000827565b601f198416620007d1866200057f565b5f5b82811015620007fa57848901518255600182019150602085019450602081019050620007d3565b868310156200081a578489015162000816601f89168262000710565b8355505b6001600288020188555050505b505050505050565b5f73ffffffffffffffffffffffffffffffffffffffff82169050919050565b5f6200085a826200082f565b9050919050565b6200086c816200084e565b82525050565b5f602082019050620008875f83018462000861565b92915050565b7f4e487b71000000000000000000000000000000000000000000000000000000005f52601160045260245ffd5b5f8160011c9050919050565b5f808291508390505b60018511156200091757808604811115620008ef57620008ee6200088d565b5b6001851615620008ff5780820291505b80810290506200090f85620008ba565b9450620008cf565b94509492505050565b5f8262000931576001905062000a03565b8162000940575f905062000a03565b816001811462000959576002811462000964576200099a565b600191505062000a03565b60ff8411156200097957620009786200088d565b5b8360020a9150848211156200099357620009926200088d565b5b5062000a03565b5060208310610133831016604e8410600b8410161715620009d45782820a905083811115620009ce57620009cd6200088d565b5b62000a03565b620009e38484846001620008c6565b92509050818404811115620009fd57620009fc6200088d565b5b81810290505b9392505050565b5f60ff82169050919050565b5f62000a228262000601565b915062000a2f8362000a0a565b925062000a5e7fffffffffffffffffffffffffffffffffffffffffffffffffffffffffffffffff848462000920565b905092915050565b5f62000a728262000601565b915062000a7f8362000601565b925082820262000a8f8162000601565b9150828204841483151762000aa95762000aa86200088d565b5b5092915050565b5f62000abc8262000601565b915062000ac98362000601565b925082820190508082111562000ae45762000ae36200088d565b5b92915050565b62000af58162000601565b82525050565b5f60608201905062000b105f83018662000861565b62000b1f602083018562000aea565b62000b2e604083018462000aea565b949350505050565b5f60208201905062000b4b5f83018462000aea565b92915050565b6112238062000b5f5f395ff3fe608060405234801561000f575f80fd5b50600436106100e8575f3560e01c806370a082311161008a57806395d89b411161006457806395d89b4114610236578063a9059cbb14610254578063dd62ed3e14610284578063f2fde38b146102b4576100e8565b806370a08231146101de578063715018a61461020e5780638da5cb5b14610218576100e8565b806323b872dd116100c657806323b872dd14610158578063313ce5671461018857806340c10f19146101a657806342966c68146101c2576100e8565b806306fdde03146100ec578063095ea7b31461010a57806318160ddd1461013a575b5f80fd5b6100f46102d0565b6040516101019190610e71565b60405180910390f35b610124600480360381019061011f9190610f22565b610360565b6040516101319190610f7a565b60405180910390f35b610142610382565b60405161014f9190610fa2565b60405180910390f35b610172600480360381019061016d9190610fbb565b61038b565b60405161017f9190610f7a565b60405180910390f35b6101906103b9565b60405161019d9190611026565b60405180910390f35b6101c060048036038101906101bb9190610f22565b6103c1565b005b6101dc60048036038101906101d7919061103f565b6103d7565b005b6101f860048036038101906101f3919061106a565b6103e4565b6040516102059190610fa2565b60405180910390f35b610216610429565b005b61022061043c565b60405161022d91906110a4565b60405180910390f35b61023e610464565b60405161024b9190610e71565b60405180910390f35b61026e60048036038101906102699190610f22565b6104f4565b60405161027b9190610f7a565b60405180910390f35b61029e600480360381019061029991906110bd565b610516565b6040516102ab9190610fa2565b60405180910390f35b6102ce60048036038101906102c9919061106a565b610598565b005b6060600380546102df90611128565b80601f016020809104026020016040519081016040528092919081815260200182805461030b90611128565b80156103565780601f1061032d57610100808354040283529160200191610356565b820191905f5260205f20905b81548152906001019060200180831161033957829003601f168201915b5050505050905090565b5f8061036a61061c565b9050610377818585610623565b600191505092915050565b5f600254905090565b5f8061039561061c565b90506103a2858285610635565b6103ad8585856106c7565b60019150509392505050565b5f6012905090565b6103c96107b7565b6103d3828261083e565b5050565b6103e133826108bd565b50565b5f805f8373ffffffffffffffffffffffffffffffffffffffff1673ffffffffffffffffffffffffffffffffffffffff1681526020019081526020015f20549050919050565b6104316107b7565b61043a5f61093c565b565b5f60055f9054906101000a900473ffffffffffffffffffffffffffffffffffffffff16905090565b60606004805461047390611128565b80601f016020809104026020016040519081016040528092919081815260200182805461049f90611128565b80156104ea5780601f106104c1576101008083540402835291602001916104ea565b820191905f5260205f20905b8154815290600101906020018083116104cd57829003601f168201915b5050505050905090565b5f806104fe61061c565b905061050b8185856106c7565b600191505092915050565b5f60015f8473ffffffffffffffffffffffffffffffffffffffff1673ffffffffffffffffffffffffffffffffffffffff1681526020019081526020015f205f8373ffffffffffffffffffffffffffffffffffffffff1673ffffffffffffffffffffffffffffffffffffffff1681526020019081526020015f2054905092915050565b6105a06107b7565b5f73ffffffffffffffffffffffffffffffffffffffff168173ffffffffffffffffffffffffffffffffffffffff1603610610575f6040517f1e4fbdf700000000000000000000000000000000000000000000000000000000815260040161060791906110a4565b60405180910390fd5b6106198161093c565b50565b5f33905090565b61063083838360016109ff565b505050565b5f6106408484610516565b90507fffffffffffffffffffffffffffffffffffffffffffffffffffffffffffffffff81146106c157818110156106b2578281836040517ffb8f41b20000000000000000000000000000000000000000000000000000000081526004016106a993929190611158565b60405180910390fd5b6106c084848484035f6109ff565b5b50505050565b5f73ffffffffffffffffffffffffffffffffffffffff168373ffffffffffffffffffffffffffffffffffffffff1603610737575f6040517f96c6fd1e00000000000000000000000000000000000000000000000000000000815260040161072e91906110a4565b60405180910390fd5b5f73ffffffffffffffffffffffffffffffffffffffff168273ffffffffffffffffffffffffffffffffffffffff16036107a7575f6040517fec442f0500000000000000000000000000000000000000000000000000000000815260040161079e91906110a4565b60405180910390fd5b6107b2838383610bce565b505050565b6107bf61061c565b73ffffffffffffffffffffffffffffffffffffffff166107dd61043c565b73ffffffffffffffffffffffffffffffffffffffff161461083c5761080061061c565b6040517f118cdaa700000000000000000000000000000000000000000000000000000000815260040161083391906110a4565b60405180910390fd5b565b5f73ffffffffffffffffffffffffffffffffffffffff168273ffffffffffffffffffffffffffffffffffffffff16036108ae575f6040517fec442f050000000000000000000000000000000000000000000000000000000081526004016108a591906110a4565b60405180910390fd5b6108b95f8383610bce565b5050565b5f73ffffffffffffffffffffffffffffffffffffffff168273ffffffffffffffffffffffffffffffffffffffff160361092d575f6040517f96c6fd1e00000000000000000000000000000000000000000000000000000000815260040161092491906110a4565b60405180910390fd5b610938825f83610bce565b5050565b5f60055f9054906101000a900473ffffffffffffffffffffffffffffffffffffffff1690508160055f6101000a81548173ffffffffffffffffffffffffffffffffffffffff021916908373ffffffffffffffffffffffffffffffffffffffff1602179055508173ffffffffffffffffffffffffffffffffffffffff168173ffffffffffffffffffffffffffffffffffffffff167f8be0079c531659141344cd1fd0a4f28419497f9722a3daafe3b4186f6b6457e060405160405180910390a35050565b5f73ffffffffffffffffffffffffffffffffffffffff168473ffffffffffffffffffffffffffffffffffffffff1603610a6f575f6040517fe602df05000000000000000000000000000000000000000000000000000000008152600401610a6691906110a4565b60405180910390fd5b5f73ffffffffffffffffffffffffffffffffffffffff168373ffffffffffffffffffffffffffffffffffffffff1603610adf575f6040517f94280d62000000000000000000000000000000000000000000000000000000008152600401610ad691906110a4565b60405180910390fd5b8160015f8673ffffffffffffffffffffffffffffffffffffffff1673ffffffffffffffffffffffffffffffffffffffff1681526020019081526020015f205f8573ffffffffffffffffffffffffffffffffffffffff1673ffffffffffffffffffffffffffffffffffffffff1681526020019081526020015f20819055508015610bc8578273ffffffffffffffffffffffffffffffffffffffff168473ffffffffffffffffffffffffffffffffffffffff167f8c5be1e5ebec7d5bd14f71427d1e84f3dd0314c0f7b2291e5b200ac8c7c3b92584604051610bbf9190610fa2565b60405180910390a35b50505050565b5f73ffffffffffffffffffffffffffffffffffffffff168373ffffffffffffffffffffffffffffffffffffffff1603610c1e578060025f828254610c1291906111ba565b92505081905550610cec565b5f805f8573ffffffffffffffffffffffffffffffffffffffff1673ffffffffffffffffffffffffffffffffffffffff1681526020019081526020015f2054905081811015610ca7578381836040517fe450d38c000000000000000000000000000000000000000000000000000000008152600401610c9e93929190611158565b60405180910390fd5b8181035f808673ffffffffffffffffffffffffffffffffffffffff1673ffffffffffffffffffffffffffffffffffffffff1681526020019081526020015f2081905550505b5f73ffffffffffffffffffffffffffffffffffffffff168273ffffffffffffffffffffffffffffffffffffffff1603610d33578060025f8282540392505081905550610d7d565b805f808473ffffffffffffffffffffffffffffffffffffffff1673ffffffffffffffffffffffffffffffffffffffff1681526020019081526020015f205f82825401925050819055505b8173ffffffffffffffffffffffffffffffffffffffff168373ffffffffffffffffffffffffffffffffffffffff167fddf252ad1be2c89b69c2b068fc378daa952ba7f163c4a11628f55a4df523b3ef83604051610dda9190610fa2565b60405180910390a3505050565b5f81519050919050565b5f82825260208201905092915050565b5f5b83811015610e1e578082015181840152602081019050610e03565b5f8484015250505050565b5f601f19601f8301169050919050565b5f610e4382610de7565b610e4d8185610df1565b9350610e5d818560208601610e01565b610e6681610e29565b840191505092915050565b5f6020820190508181035f830152610e898184610e39565b905092915050565b5f80fd5b5f73ffffffffffffffffffffffffffffffffffffffff82169050919050565b5f610ebe82610e95565b9050919050565b610ece81610eb4565b8114610ed8575f80fd5b50565b5f81359050610ee981610ec5565b92915050565b5f819050919050565b610f0181610eef565b8114610f0b575f80fd5b50565b5f81359050610f1c81610ef8565b92915050565b5f8060408385031215610f3857610f37610e91565b5b5f610f4585828601610edb565b9250506020610f5685828601610f0e565b9150509250929050565b5f8115159050919050565b610f7481610f60565b82525050565b5f602082019050610f8d5f830184610f6b565b92915050565b610f9c81610eef565b82525050565b5f602082019050610fb55f830184610f93565b92915050565b5f805f60608486031215610fd257610fd1610e91565b5b5f610fdf86828701610edb565b9350506020610ff086828701610edb565b925050604061100186828701610f0e565b9150509250925092565b5f60ff82169050919050565b6110208161100b565b82525050565b5f6020820190506110395f830184611017565b92915050565b5f6020828403121561105457611053610e91565b5b5f61106184828501610f0e565b91505092915050565b5f6020828403121561107f5761107e610e91565b5b5f61108c84828501610edb565b91505092915050565b61109e81610eb4565b82525050565b5f6020820190506110b75f830184611095565b92915050565b5f80604083850312156110d3576110d2610e91565b5b5f6110e085828601610edb565b92505060206110f185828601610edb565b9150509250929050565b7f4e487b71000000000000000000000000000000000000000000000000000000005f52602260045260245ffd5b5f600282049050600182168061113f57607f821691505b602082108103611152576111516110fb565b5b50919050565b5f60608201905061116b5f830186611095565b6111786020830185610f93565b6111856040830184610f93565b949350505050565b7f4e487b71000000000000000000000000000000000000000000000000000000005f52601160045260245ffd5b5f6111c482610eef565b91506111cf83610eef565b92508282019050808211156111e7576111e661118d565b5b9291505056fea2646970667358221220abfa250476037adacac046dec2a3f9f015e8b6fed82978aa7425c0d79503bd7064736f6c63430008150033",
  "immutableReferences": {},
  "source": "// SPDX-License-Identifier: MIT\npragma solidity ^0.8.21;\n\nimport \"@openzeppelin/contracts/token/ERC20/ERC20.sol\";\nimport \"@openzeppelin/contracts/access/Ownable.sol\";\n\ncontract EcoToken1 is ERC20, Ownable {\n    constructor() ERC20(\"EcoToken\", \"ECO\") Ownable(msg.sender) { // Ownable (with @openzeppelin) base-call triggers an 'invalid opcode' deployment error\n        // Ownable.transferOwnership(msg.sender);  // Explicitly transferring ownership - also triggers error\n        // todo: use a custom Ownable implementation\n\n        _mint(msg.sender, 1_000_000 * 10 ** decimals()); // Mint 1 million tokens to deployer\n    }\n\n    function mint(address to, uint256 amount) external onlyOwner {\n        _mint(to, amount);\n    }\n\n    function burn(uint256 amount) external {\n        _burn(msg.sender, amount);\n    }\n}\n",
  "sourcePath": "/Users/kwadwo/Desktop/AUTOMAN/autocode/github/auto_portfolios/auto-portfolio - samples/blockchain-development/blockchain-smart-contracts/contracts/ecotoken-1.sol",
  "compiler": {
    "name": "solc",
    "version": "0.8.21+commit.d9974bed.Emscripten.clang"
  },
  "schemaVersion": "3.4.16",
  "updatedAt": "2024-12-02T17:10:15.953Z",
  "devdoc": {
    "errors": {
      "ERC20InsufficientAllowance(address,uint256,uint256)": [
        {
          "details": "Indicates a failure with the `spender`s `allowance`. Used in transfers.",
          "params": {
            "allowance": "Amount of tokens a `spender` is allowed to operate with.",
            "needed": "Minimum amount required to perform a transfer.",
            "spender": "Address that may be allowed to operate on tokens without being their owner."
          }
        }
      ],
      "ERC20InsufficientBalance(address,uint256,uint256)": [
        {
          "details": "Indicates an error related to the current `balance` of a `sender`. Used in transfers.",
          "params": {
            "balance": "Current balance for the interacting account.",
            "needed": "Minimum amount required to perform a transfer.",
            "sender": "Address whose tokens are being transferred."
          }
        }
      ],
      "ERC20InvalidApprover(address)": [
        {
          "details": "Indicates a failure with the `approver` of a token to be approved. Used in approvals.",
          "params": {
            "approver": "Address initiating an approval operation."
          }
        }
      ],
      "ERC20InvalidReceiver(address)": [
        {
          "details": "Indicates a failure with the token `receiver`. Used in transfers.",
          "params": {
            "receiver": "Address to which tokens are being transferred."
          }
        }
      ],
      "ERC20InvalidSender(address)": [
        {
          "details": "Indicates a failure with the token `sender`. Used in transfers.",
          "params": {
            "sender": "Address whose tokens are being transferred."
          }
        }
      ],
      "ERC20InvalidSpender(address)": [
        {
          "details": "Indicates a failure with the `spender` to be approved. Used in approvals.",
          "params": {
            "spender": "Address that may be allowed to operate on tokens without being their owner."
          }
        }
      ],
      "OwnableInvalidOwner(address)": [
        {
          "details": "The owner is not a valid owner account. (eg. `address(0)`)"
        }
      ],
      "OwnableUnauthorizedAccount(address)": [
        {
          "details": "The caller account is not authorized to perform an operation."
        }
      ]
    },
    "events": {
      "Approval(address,address,uint256)": {
        "details": "Emitted when the allowance of a `spender` for an `owner` is set by a call to {approve}. `value` is the new allowance."
      },
      "Transfer(address,address,uint256)": {
        "details": "Emitted when `value` tokens are moved from one account (`from`) to another (`to`). Note that `value` may be zero."
      }
    },
    "kind": "dev",
    "methods": {
      "allowance(address,address)": {
        "details": "See {IERC20-allowance}."
      },
      "approve(address,uint256)": {
        "details": "See {IERC20-approve}. NOTE: If `value` is the maximum `uint256`, the allowance is not updated on `transferFrom`. This is semantically equivalent to an infinite approval. Requirements: - `spender` cannot be the zero address."
      },
      "balanceOf(address)": {
        "details": "See {IERC20-balanceOf}."
      },
      "decimals()": {
        "details": "Returns the number of decimals used to get its user representation. For example, if `decimals` equals `2`, a balance of `505` tokens should be displayed to a user as `5.05` (`505 / 10 ** 2`). Tokens usually opt for a value of 18, imitating the relationship between Ether and Wei. This is the default value returned by this function, unless it's overridden. NOTE: This information is only used for _display_ purposes: it in no way affects any of the arithmetic of the contract, including {IERC20-balanceOf} and {IERC20-transfer}."
      },
      "name()": {
        "details": "Returns the name of the token."
      },
      "owner()": {
        "details": "Returns the address of the current owner."
      },
      "renounceOwnership()": {
        "details": "Leaves the contract without owner. It will not be possible to call `onlyOwner` functions. Can only be called by the current owner. NOTE: Renouncing ownership will leave the contract without an owner, thereby disabling any functionality that is only available to the owner."
      },
      "symbol()": {
        "details": "Returns the symbol of the token, usually a shorter version of the name."
      },
      "totalSupply()": {
        "details": "See {IERC20-totalSupply}."
      },
      "transfer(address,uint256)": {
        "details": "See {IERC20-transfer}. Requirements: - `to` cannot be the zero address. - the caller must have a balance of at least `value`."
      },
      "transferFrom(address,address,uint256)": {
        "details": "See {IERC20-transferFrom}. Skips emitting an {Approval} event indicating an allowance update. This is not required by the ERC. See {xref-ERC20-_approve-address-address-uint256-bool-}[_approve]. NOTE: Does not update the allowance if the current allowance is the maximum `uint256`. Requirements: - `from` and `to` cannot be the zero address. - `from` must have a balance of at least `value`. - the caller must have allowance for ``from``'s tokens of at least `value`."
      },
      "transferOwnership(address)": {
        "details": "Transfers ownership of the contract to a new account (`newOwner`). Can only be called by the current owner."
      }
    },
    "version": 1
  },
  "userdoc": {
    "kind": "user",
    "methods": {},
    "version": 1
  }
}